:100000000C9462000C948A000C948A000C948A0070
:100010000C948A000C948A000C948A000C948A0038
:100020000C948A000C948A000C948A000C94F807B3
:100030000C948A000C948A000C948A000C948A0018
:100040000C948F060C948A000C945D060C94370671
:100050000C948A000C948A000C948A000C948A00F8
:100060000C94D9060C948A0000000000240027009C
:100070002A0000000000250028002B0000000000DE
:1000800023002600290004040404040404040202DA
:100090000202020203030303030301020408102007
:1000A0004080010204081020010204081020000012
:1000B0000008000201000003040700000000000027
:1000C0000000B40811241FBECFEFD8E0DEBFCDBFC3
:1000D00011E0A0E0B1E0E2E3F9E102C005900D9289
:1000E000A03FB107D9F723E0A0EFB1E001C01D9216
:1000F000A13AB207E1F710E0C2E6D0E004C02197D0
:10010000FE010E94910CC136D107C9F70E9438093F
:100110000C94970C0C9400008F929F92AF92BF9218
:10012000FF920F931F93CF93DF93F09092032BE0F6
:100130002F1508F44CC02091940308E512E0021B2F
:10014000110927FD1395000F111F000F111F20919A
:100150009303C8E8D0E0C21BD10927FDD395CC0F8B
:10016000DD1FCC0FDD1F4E010D2E000CAA08BB08B1
:100170009801012E000C440B550B281939094A0926
:100180005B09DC010E944C0C24EB30E040E050E0C5
:100190000E94220C820E931EA41EB51E8C169D0674
:1001A0002CF0E801801691060CF4E4012297CC0FA4
:1001B000DD1F2FB7F8948F2D90E0FC01EE0FFF1F8D
:1001C000E80FF91FE359FC4FD283C1832FBFDF91A2
:1001D000CF911F910F91FF90BF90AF909F908F9004
:1001E000089508950895AF92BF92CF92DF92EF9253
:1001F000FF920F931F93CF93DF936C017B018B01D1
:10020000040F151FEB015E01AE18BF08C017D10720
:1002100059F06991D601ED91FC910190F081E02DAA
:10022000C6010995892B79F7C501DF91CF911F91FF
:100230000F91FF90EF90DF90CF90BF90AF90089517
:10024000FC01538D448D252F30E0842F90E0821BDC
:10025000930B541710F0CF96089501970895FC0161
:10026000918D828D981761F0A28DAE0FBF2FB11DB9
:100270005D968C91928D9F5F9F73928F90E0089511
:100280008FEF9FEF0895FC01918D828D981731F0CB
:10029000828DE80FF11D858D90E008958FEF9FEF1F
:1002A0000895FC01918D228D892F90E0805C9F4FF5
:1002B000821B91098F739927089584EC92E00E9424
:1002C000510121E0892B09F420E0822F089580E07C
:1002D00090E0892B29F00E945D0181110C940000AF
:1002E0000895FC01A48DA80FB92FB11DA35ABF4FCB
:1002F0002C91848D90E001968F739927848FA68925
:10030000B7892C93A089B1898C91837080648C9378
:10031000938D848D981306C00288F389E02D808127
:100320008F7D80830895EF92FF920F931F93CF9359
:10033000DF93EC0181E0888F9B8D8C8D98131AC020
:10034000E889F989808185FF15C09FB7F894EE8907
:10035000FF896083E889F989808183708064808364
:100360009FBF81E090E0DF91CF911F910F91FF90AF
:10037000EF900895F62E0B8D10E00F5F1F4F0F7357
:100380001127E02E8C8D8E110CC00FB607FCFACF12
:10039000E889F989808185FFF5CFCE010E9471013E
:1003A000F1CFEB8DEC0FFD2FF11DE35AFF4FF082E3
:1003B0009FB7F8940B8FEA89FB8980818062CFCF49
:1003C000CF93DF93EC01888D8823B9F0AA89BB898C
:1003D000E889F9898C9185FD03C0808186FD0DC077
:1003E0000FB607FCF7CF8C9185FFF2CF808185FF98
:1003F000EDCFCE010E947101E9CFDF91CF91089539
:10040000833081F028F4813099F08230A9F008958A
:100410008730A9F08830C9F08430B1F48091800031
:100420008F7D03C0809180008F7780938000089536
:1004300084B58F7784BD089584B58F7DFBCF80917F
:10044000B0008F778093B00008958091B0008F7DC9
:10045000F9CFCF93DF93282F30E0F901E255FF4F1A
:100460008491F901E656FF4FD491F901EA57FF4F05
:10047000C491CC23A1F081110E940002EC2FF0E086
:10048000EE0FFF1FE458FF4FA591B491EC91ED23BF
:1004900081E090E009F480E0DF91CF91089580E061
:1004A00090E0FACF1F93CF93DF93282F30E0F9012C
:1004B000E255FF4F8491F901E656FF4FD491F901BF
:1004C000EA57FF4FC491CC23A9F0162F81110E9447
:1004D0000002EC2FF0E0EE0FFF1FEE58FF4FA5914A
:1004E000B4918FB7F894EC91111108C0D095DE2328
:1004F000DC938FBFDF91CF911F910895DE2BF8CF52
:10050000CF93DF9390E0FC01E656FF4F24918A578A
:100510009F4FFC0184918823D1F090E0880F991FB0
:10052000FC01E859FF4FA591B491FC01EE58FF4F33
:10053000C591D49161110EC09FB7F8948C91E22FB0
:10054000E0958E238C932881E223E8839FBFDF917F
:10055000CF9108958FB7F894EC91E22BEC938FBF75
:10056000F6CF3FB7F8948091A8029091A902A0918C
:10057000AA02B091AB0226B5A89B05C02F3F19F087
:100580000196A11DB11D3FBFBA2FA92F982F882713
:10059000BC01CD01620F711D811D911D42E0660FEE
:1005A000771F881F991F4A95D1F708958F929F92C0
:1005B000AF92BF92CF92DF92EF92FF924B015C011C
:1005C0000E94B1026B017C010E94B1026C197D098D
:1005D0008E099F09683E734081059105A8F321E0CB
:1005E000821A9108A108B10888EEC80E83E0D81ECF
:1005F000E11CF11C81149104A104B10429F7FF90BE
:10060000EF90DF90CF90BF90AF909F908F90089524
:10061000089520913202260F3327331F21323105EE
:10062000ECF420917B02FC0190E080E0243069F042
:1006300082E00895A09132022191AC014E5E5D4F9F
:10064000A40FB52FB11D2C930196861798F38091B6
:100650003202680F6093320280E0089581E00895CD
:1006600010927B0281E080937A021092550261E041
:1006700082E10E94520261E083E10E945202E9EBB2
:10068000F0E080818E7F808380818D7F808388E40D
:100690008093B80085E48093BC000895CF93DF93E6
:1006A00091E0909311028823B9F0C091B800D091E5
:1006B000BA008091BC008A7B8093BC0060E082E13C
:1006C0000E94520260E083E10E9452020E943003C5
:1006D000D093BA00C093B800DF91CF9108950895E8
:1006E000E091B3028091B202E81730F4F0E0EF50ED
:1006F000FE4F808190E008958FEF9FEF08959091D5
:10070000B3028091B2022FEF3FEF981748F4E92F20
:10071000F0E0EF50FE4F208130E09F5F9093B302F6
:10072000C90108958091B2029091B302891B990B7F
:100730000895CF92DF92EF92FF920F931F93CF9382
:10074000DF937C01CB018A0120918102222389F071
:10075000EB016B01C40ED51ECC15DD0569F0699166
:10076000D701ED91FC910190F081E02DC701099531
:10077000F3CF642F0E940903C801DF91CF911F912D
:100780000F91FF90EF90DF90CF900895CF93DF937C
:100790001F92CDB7DEB76983209181022223F9F041
:1007A0002091B002203258F021E030E0FC01338388
:1007B000228390E080E00F90DF91CF9108958091A7
:1007C000B102E82FF0E0EE57FD4F998190838F5FE3
:1007D0008093B1028093B00281E090E0ECCF61E0C1
:1007E000CE0101960E940903F7CFCF92DF92EF92DC
:1007F000FF920F931F93CF93DF93FC01C48121E0FD
:1008000020938102C093A2021092B1021092B00212
:100810008385682B81E693E00E94C603D091B002E5
:10082000D13208F092C00E94B1026B017C0180912C
:100830007B02811165C082E080937B0281E080931E
:100840007A028FEF8093790210927802D093770228
:10085000A2E8B2E0E7E5F2E080E0D81385C01092AC
:10086000560280915602CC0FC82BC093560280913D
:100870005502813009F07CC0109255020E94B102ED
:100880006B017C01809156028093BB0080917D02B8
:1008900090917E02A0917F02B0918002892B8A2BD9
:1008A0008B2B99F00E94B10200917D0210917E0283
:1008B00020917F02309180026C197D098E099F0979
:1008C0000617170728073907E0F18091BC0083FD60
:1008D000D9CF85EC8093BC000E94B1026B017C01F2
:1008E00080917B02823009F445C0809179028F3F6C
:1008F00061F180917902803241F18091790225C0C5
:1009000080917D0290917E02A0917F02B091800241
:10091000892B8A2B8B2B09F48ACF0E94B10200917C
:100920007D0210917E0220917F02309180026C192D
:100930007D098E099F09061717072807390708F050
:1009400076CF80917C020E944E031092B1021092E9
:10095000B00210928102DF91CF911F910F91FF9011
:10096000EF90DF90CF9008959D9191938F5F75CF19
:1009700085EEB0CF80917D0290917E02A0917F02A2
:10098000B0918002892B8A2B8B2B09F4A9CF0E946E
:10099000B10200917D0210917E0220917F02309180
:1009A00080026C197D098E099F0906171707280711
:1009B000390708F095CFC5CF90E080E008951092F8
:1009C000C3021092C2021092C1021092C002109291
:1009D000BF021092BE021092BD021092BC02109291
:1009E000BB021092BA021092B9021092B80285E0CE
:1009F0000E942902892B31F481E090E09093C30298
:100A00008093C20286E00E942902892B31F481E0A2
:100A100090E09093C1028093C00287E00E94290277
:100A2000892B31F481E090E09093BF028093BE0265
:100A300088E00E942902892B31F481E090E09093B4
:100A4000BD028093BC0289E00E942902892B31F407
:100A500081E090E09093BB028093BA028AE00E940A
:100A60002902892B31F481E090E09093B9028093C0
:100A7000B80208958F929F92AF92BF920F931F93E7
:100A8000CF93DF93CDB7DEB7A1970FB6F894DEBF53
:100A90000FBECDBF19A2423008F44AE08E010F5DAF
:100AA0001F4F842E912CB12CA12CA50194010E94E2
:100AB000540CE62FB901CA01EA3044F5E05DD801D3
:100AC000EE938D01232B242B252B79F790E080E0EA
:100AD000109769F0FD0101900020E9F73197AF010F
:100AE0004A1B5B0BBD0185E993E00E94F300A196D0
:100AF0000FB6F894DEBF0FBECDBFDF91CF911F912F
:100B00000F91BF90AF909F908F900895E95CD7CFE1
:100B1000FC0101900020E9F73197AF01481B590B08
:100B2000BC0185E993E00C94F3000F931F93CF93DE
:100B30008C01C62F0E94F5036C2F6460C8010E94CF
:100B4000F5036C2F6B7FC8010E94F50383EC90E0E6
:100B50000197F1F7CF911F910F9108950F931F9374
:100B6000CF93DF938C01D62FC42F607F642B0E941C
:100B7000950580E1D89FB00111246C2BC801DF914D
:100B8000CF911F910F910C949505CF93DF93CDB723
:100B9000DEB728970FB6F894DEBF0FBECDBF98E042
:100BA000E2E0F1E0DE01119601900D929A95E1F7F5
:100BB00090919D03961710F46FEF690F262F30E088
:100BC000220F331F41E050E04C0F5D1F240F351FF3
:100BD000F9016081680F606840E085E993E028963C
:100BE0000FB6F894DEBF0FBECDBFDF91CF910C944E
:100BF000AE0541E00E94AE0581E090E0089585EDEC
:100C00008093BC0080917D0290917E02A0917F0232
:100C1000B09180020796A11DB11D23E0B695A7955E
:100C2000979587952A95D1F72091BC0024FD03C0A4
:100C300010927B02089540917D0250917E02609156
:100C40007F0270918002452B462B472B69F300975A
:100C5000A105B10541F025E32A95F1F700000197C0
:100C6000A109B109E1CF80917C020C944E031F923F
:100C70000F920FB60F9211242F933F934F935F93D0
:100C80006F937F938F939F93AF93BF93EF93FF9354
:100C900084EC92E00E947101FF91EF91BF91AF91BE
:100CA0009F918F917F916F915F914F913F912F9184
:100CB0000F900FBE0F901F9018951F920F920FB6B6
:100CC0000F9211242F938F939F93EF93FF93E091B3
:100CD000D402F091D5028081E091DA02F091DB023A
:100CE00082FD1BC090818091DD028F5F8F73209108
:100CF000DE02821741F0E091DD02F0E0EC53FD4F9F
:100D0000958F8093DD02FF91EF919F918F912F91AD
:100D10000F900FBE0F901F9018958081F4CF1F92F7
:100D20000F920FB60F9211242F933F938F939F939F
:100D3000AF93BF938091A4029091A502A091A602C7
:100D4000B091A7023091A30223E0230F2D3758F56D
:100D50000196A11DB11D2093A3028093A40290933C
:100D6000A502A093A602B093A7028091A802909139
:100D7000A902A091AA02B091AB020196A11DB11DDA
:100D80008093A8029093A902A093AA02B093AB0209
:100D9000BF91AF919F918F913F912F910F900FBE77
:100DA0000F901F90189526E8230F0296A11DB11DE4
:100DB000D2CF1F920F920FB60F9211242F933F9311
:100DC0004F935F936F937F938F939F93AF93BF9353
:100DD000EF93FF938091B900887F803609F44AC071
:100DE000F0F5883209F4A7C018F5803109F49BC0EA
:100DF000B8F4882309F4F9C0883009F494C0FF914D
:100E0000EF91BF91AF919F918F917F916F915F9182
:100E10004F913F912F910F900FBE0F901F901895FB
:100E2000883109F488C0803251F78093790214C068
:100E3000803409F49DC040F48033B9F38833F9F667
:100E40008093790285ECB0C0803509F485C088357F
:100E500009F496C0883499F60E94FF05D0CF8839EE
:100E600009F48CC038F5883729F050F4883611F031
:100E7000803729F683E080937B021092540257C09A
:100E8000883809F47BC0803919F0803809F0B7CF71
:100E900080915402803208F071C0E091540281E0E8
:100EA0008E0F809354028091BB00F0E0EC5CFD4F0C
:100EB00080833DC0803B39F0E0F4803A09F479C08A
:100EC000883A09F09CCF84E080937B021092330231
:100ED00010923202E091AE02F091AF02099580913A
:100EE000320281110FC081E080933202109212020F
:100EF00009C0803C09F4A6CF883C09F4A3CF883B05
:100F000009F07DCFE091330281E08E0F80933302B0
:100F1000F0E0EE5EFD4F80818093BB009091330244
:100F20008091320229C0809156028093BB0085ECEB
:100F30008093BC0064CF90917802809177029817DB
:100F400058F5E091780281E08E0F80937802F0E00E
:100F5000E95AFD4F8081E9CFE091780281E08E0F60
:100F6000809378028091BB00F0E0E95AFD4F8083C6
:100F700090917802809177029817C8F285E8D8CFCF
:100F8000E091780281E08E0F809378028091BB001F
:100F9000F0E0E95AFD4F808380917A0281115CCFA5
:100FA00081E08093550284EA8093BC0010927B021A
:100FB00026CF85EC8093BC0010927B028091540276
:100FC000803230F4E0915402F0E0EC5CFD4F10828E
:100FD0006091540270E0E091AC02F091AD0284E3C4
:100FE00092E00995109254020ACF1092790234CF00
:100FF0001F920F920FB60F9211242F933F934F938E
:101000005F936F937F938F939F93AF93BF93CF9390
:10101000DF93EF93FF938091F001C0919103D0E0B3
:1010200087FF24C010928500109284008091F00107
:101030008F5F8093F0018091F001082E000C990BD6
:101040008C179D0724F48091F0018C30C4F18091BD
:10105000840090918500049680349C4908F47AC0FD
:101060008091840090918500049676C08091F00173
:10107000082E000C990B8C179D07C4F6E091F00127
:101080008E2FEE0F990BFC01EE0FFF1FE80FF91FDB
:10109000E359FC4F808186FFC9CFE091F0018E2F8C
:1010A000EE0F990BFC01EE0FFF1FE80FF91FE3593C
:1010B000FC4F808160E08F730E945202B7CF209175
:1010C000840030918500E091F0018E2FEE0F990B96
:1010D000FC01EE0FFF1FE80FF91FE359FC4F818160
:1010E0009281820F931F9093890080938800E091F2
:1010F000F0018E2FEE0F990BFC01EE0FFF1FE80F92
:10110000F91FE359FC4F808186FF11C0E091F00187
:101110008E2FEE0F990BFC01EE0FFF1FE80FF91F4A
:10112000E359FC4F808161E08F730E945202FF916E
:10113000EF91DF91CF91BF91AF919F918F917F916F
:101140006F915F914F913F912F910F900FBE0F9034
:101150001F90189580E49CE9909389008093880003
:101160008FEF8093F001E3CF1092C7021092C60276
:1011700088EE93E0A0E0B0E08093C8029093C902AB
:10118000A093CA02B093CB022EE031E03093C502A7
:101190002093C40225EC30E03093D1022093D0029A
:1011A00024EC30E03093D3022093D20220EC30E0E4
:1011B0003093D5022093D40221EC30E03093D70253
:1011C0002093D60222EC30E03093D9022093D8024B
:1011D00026EC30E03093DB022093DA021092DD023D
:1011E0001092DE021092DF021092E002109264036D
:1011F000109263038093650390936603A093670343
:10120000B093680380E291E090936203809361035E
:10121000109298031092970382E391E090939603C3
:101220008093950387E28093990384E180939E03E2
:1012300084E080939F031092A003809191038C30EF
:1012400098F491E0980F909391038093920390E02B
:10125000FC01EE0FFF1FE80FF91FE359FC4F88EB6D
:101260009BE09283818308958FEF8093920308958A
:10127000789484B5826084BD84B5816084BD85B571
:10128000826085BD85B5816085BD80916E0081607D
:1012900080936E0010928100809181008260809323
:1012A0008100809181008160809381008091800025
:1012B0008160809380008091B10084608093B10050
:1012C0008091B00081608093B00080917A0084604A
:1012D00080937A0080917A00826080937A00809176
:1012E0007A00816080937A0080917A008068809390
:1012F0007A001092C100E091D402F091D50282E010
:101300008083E091D002F091D1021082E091D2026C
:10131000F091D3028FEC80831092DC02E091D8022E
:10132000F091D90286E08083E091D602F091D70255
:10133000808180618083E091D602F091D702808124
:1013400088608083E091D602F091D7028081806826
:101350008083E091D602F091D70280818F7D8083D7
:1013600060E085E00E94800260E086E00E948002EA
:1013700060E087E00E94800260E088E00E948002D6
:1013800060E089E00E94800260E08AE00E948002C2
:1013900060E082E00E94800260E084E00E948002BF
:1013A000809192038C3008F051C061E083E00E948C
:1013B000800280919203282F30E0F901EE0FFF1F89
:1013C000E20FF31FE359FC4F9081907C9360908370
:1013D00010929303109294032CE0622F0E94850CCC
:1013E000829FB001112430E020E0AB01420F531F77
:1013F000FA01EE0FFF1FE40FF51FE359FC4F908138
:1014000096FD16C02F5F3F4F2C30310571F78111CB
:101410000FC01092800082E08093810010928500BE
:1014200010928400B19A80916F00826080936F0067
:10143000E09192038E2F90E0FC01EE0FFF1FE80F6A
:10144000F91FE359FC4F8081806480838AE590E036
:101450000E948C001092B3021092B2021092B1025C
:101460001092B0020E94300381EF90E09093AF029F
:101470008093AE0282EF90E09093AD028093AC0235
:1014800010929A0380919F03823018F098E0909315
:101490009A0380939D0362E370E080E090E00E94F5
:1014A000D6026091A00385E993E00E94F50368EEFF
:1014B00073E080E090E00E94D60260E385E993E06B
:1014C0000E949505CBE4D6E4CE010197F1F760E3E5
:1014D00085E993E00E9495052197F1F760E385E99E
:1014E00093E00E94950583E592E00197F1F760E2B1
:1014F00085E993E00E94950560919A03606240E05F
:1015000085E993E00E94AE0584E080939B0340E070
:101510006CE085E993E00E94AE0540E061E085E97A
:1015200093E00E94AE05CBE3DFE1CE010197F1F736
:1015300082E080939C0340E066E085E993E00E94AE
:10154000AE0540E062E085E993E00E94AE05CE0181
:101550000197F1F788E08093A00360E085E993E0CC
:101560000E94F5038AE391E00E94880562E080E032
:101570000E94C5058DE491E00E94880568EE73E045
:1015800080E090E00E94D60240E061E085E993E0CF
:101590000E94AE052197F1F70E94DF048091C202FC
:1015A0009091C3022091C0023091C102820F931F1B
:1015B0002091BE023091BF02820F931F2091BC0286
:1015C0003091BD02820F931F2091BA023091BB026D
:1015D000820F931F2091B8023091B902820F931F9E
:1015E0002091000130910101281B390B309301013A
:1015F0002093000100E010E0C1E0D0E00E94DF0491
:1016000060E080E00E94C50580E691E00E948805C8
:10161000C0900001D09001010D2C000CEE08FF08D5
:101620004AE0C701B601F7FE0EC041E06DE285E970
:1016300093E00E94AE0566277727CB016C197D09E0
:101640008E099F094AE00E943A058BE591E00E94CD
:10165000880561E080E00E94C5058091C2029091FA
:10166000C302019709F09FC08FE691E00E948805B0
:1016700061E08AE00E94C5058091C0029091C1029C
:10168000019709F093C081E891E00E94880562E02B
:1016900080E00E94C5058091BE029091BF02019733
:1016A00009F087C083E991E00E94880562E08AE042
:1016B0000E94C5058091BC029091BD02019709F07E
:1016C0007BC085EA91E00E94880563E080E00E948B
:1016D000C5058091BA029091BB02019709F06FC0D5
:1016E00087EB91E00E94880563E08AE00E94C505CF
:1016F0008091B8029091B902019709F063C089EC1A
:1017000091E00E94880582E00E942902892B19F548
:101710008091B6029091B702892BE9F4E090000124
:10172000F09001011E141F040CF04FC0D093B702BB
:10173000C093B6028091B4029091B502892B59F4FE
:1017400084EB90E00E948C0081E0E81AF108F092AE
:101750000101E092000184E00E9429022091B6027A
:101760003091B702892B09F43FC02130310509F0CF
:1017700057C08091B4029091B502019709F050C012
:1017800068EE73E080E090E00E94D6028AE590E087
:101790000E948C001092B7021092B6021092B5020D
:1017A0001092B4023DC088E791E060CF8AE891E0F2
:1017B0006CCF8CE991E078CF8EEA91E084CF80EC19
:1017C00091E090CF82ED91E09CCF60E080E00E94BC
:1017D000C5058BED91E00E9488056CED75E080E019
:1017E00090E00E94D602B7CF8091B4029091B502EA
:1017F000892B09F0BACFD093B502C093B40221155A
:10180000310509F0B2CF84EB90E00E948C0080910A
:1018100000019091010101969093010180930001D4
:1018200061E070E080E090E00E94D60201151105B1
:1018300009F4E4CE0E945D01882309F4DFCE0E9402
:101840000000DCCE052E97FB1EF400940E94390C9C
:1018500057FD07D00E94540C07FC03D04EF40C94A3
:10186000390C50954095309521953F4F4F4F5F4F24
:10187000089590958095709561957F4F8F4F9F4FFC
:1018800008950E94760CA59F900DB49F900DA49F83
:10189000800D911D11240895B7FF0C94410C0E94F6
:1018A000410C821B930B0895A1E21A2EAA1BBB1BAD
:1018B000FD010DC0AA1FBB1FEE1FFF1FA217B3071C
:1018C000E407F50720F0A21BB30BE40BF50B661F32
:1018D000771F881F991F1A9469F7609570958095F6
:1018E00090959B01AC01BD01CF010895A29FB0016D
:1018F000B39FC001A39F700D811D1124911DB29F44
:10190000700D811D1124911D0895991B79E004C06B
:10191000991F961708F0961B881F7A95C9F780952E
:101920000895EE0FFF1F0590F491E02D0994F894AF
:02193000FFCFE7
:101932000600000040001400540000000000930163
:10194200F3002001E00151012F01430100000000DA
:10195200C6039903DC046F0392037F037003000044
:101962000000F905F300DC04080320202020436175
:101972007220207061726B696E6720200020202027
:101982002020202053797374656D202020202000B0
:101992002020204861766520536C6F743A200053F2
:1019A200313A46696C6C200053313A456D70747956
:1019B2000053323A46696C6C200053323A456D70DE
:1019C20074790053333A46696C6C200053333A45BC
:1019D2006D7074790053343A46696C6C200053344C
:1019E2003A456D7074790053353A46696C6C200043
:1019F20053353A456D7074790053363A46696C6CCA
:101A0200200053363A456D7074790020536F72721C
:101A120079205061726B696E672046756C6C20008C
:00000001FF
